:020000040800F2
:1000000088060020C50800083D0200083F020008DD
:1000100041020008430200084502000800000000F9
:10002000000000000000000000000000470200087F
:1000300049020008000000004B0200084D020008C1
:10004000DF080008DF080008DF080008DF080008F4
:10005000DF080008DF080008DF080008DF080008E4
:10006000DF080008DF080008DF080008DF080008D4
:10007000DF080008DF080008DF080008DF080008C4
:10008000DF080008DF080008DF080008DF080008B4
:10009000DF080008DF080008DF080008DF080008A4
:1000A000DF080008DF080008DF080008DF08000894
:1000B000DF080008DF080008DF080008DF08000884
:1000C000DF080008DF080008DF080008DF08000874
:1000D000DF080008DF080008DF080008DF08000864
:1000E000DF080008DF080008DF080008DF08000854
:1000F000DF080008DF080008DF080008DF08000844
:10010000DF080008DF080008DF080008DF08000833
:10011000DF080008DF080008DF080008DF08000823
:10012000DF080008DF080008DF080008DF08000813
:1001300000F002F800F03AF80AA090E8000C8244BF
:100140008344AAF10107DA4501D100F02FF8AFF29C
:10015000090EBAE80F0013F0010F18BFFB1A43F0A5
:10016000010318475C0800007C080000103A24BF17
:1001700078C878C1FAD8520724BF30C830C144BF0C
:1001800004680C607047000000230024002500264E
:10019000103A28BF78C1FBD8520728BF30C148BFEA
:1001A0000B6070471FB51FBD10B510BD00F0CDFB33
:1001B0001146FFF7F7FF00F009F800F0EBFB03B47E
:1001C000FFF7F2FF03BC00F0F3FB000000F09AFB26
:1001D000184E2021304600F002F9174F20213846F2
:1001E00000F0FBF801206FF07F410D11401C8842A8
:1001F000FCD32C460220401CA042FCD30220401C11
:10020000A042FCD32021304600F0DDF8C0F101000F
:10021000C2B22021304600F0E4F82021384600F038
:10022000D2F8C0F10100C2B22021384600F0D9F85E
:10023000DFE7000000180140000C01407047FEE7B6
:10024000FEE7FEE7FEE77047704770477047000023
:10025000914910B5884206D10121042000F04BFAE3
:10026000002104203BE08D49884206D1012108206D
:1002700000F041FA0021082031E08949884206D186
:100280000121102000F037FA0021102027E08549D5
:10029000884206D10121202000F02DFA00212020E3
:1002A0001DE08149884206D10121402000F023FA57
:1002B0000021402013E07D49884206D101218020A1
:1002C00000F019FA0021802009E0794988420AD11A
:1002D00084150121204600F00EFA00212046BDE8D9
:1002E000104000F008BA10BD10B50121084600F01A
:1002F00002FA0021BDE81040012000F0FCB9F0B581
:10030000CA78002502F00F03D20601D58A7813437C
:100310000A784FF00F0E12F0FF0F4FF001021DD0C0
:10032000D0F800400F8802FA05F63740B74211D1E5
:100330004FEA850C0EFA0CF724EA070703FA0CF4CF
:100340003C43CF78282F02D0482F02D002E04661EC
:1003500000E006616D1C082DE4D304600C88FF2CBE
:100360001ED944685FF0000606F1080702FA07F597
:100370000F882F40AF420FD14FEA860C0EFA0CF7D0
:10038000BC4303FA0CF73C43CF78282F00D14561DA
:10039000CF78482F00D10561761C082EE4D3446045
:1003A000F0BD4FF6FF710180022181700421C17000
:1003B00070470246002092680A4200D00120704730
:1003C000806880B2704702460020D2680A4200D09E
:1003D00001207047C06880B2704701617047416179
:1003E00070470AB10161704741617047C160704751
:1003F00041F48032826181618261816980697047E4
:100400002C4B10B51A684FF68074224042EA001057
:100410000843186010BD2849C8617047F0B5254CE5
:10042000002801DAE36900E06368420D120185B239
:10043000C0F301579540C0F30346032F05D0C20215
:100440000AD50322B240934307E023F07062636849
:1004500023F07063636002E0AB4343F0706201B16C
:100460002A43002801DAE261F0BD6260F0BD10B5F8
:100470008A0721F003040F49130F21440F228C68CF
:100480009A4094438C608A68984002438A6010BD09
:100490000949C1F8DC00704700080140000C014028
:1004A000001001400014014000180140001C0140F0
:1004B000002001400000014000002042A4480168E3
:1004C00041F0010101604168A24A114041600168A8
:1004D000A14A11400160016821F480210160416856
:1004E00021F4FE0141604FF41F018160704798497B
:1004F0000A6822F480320A600A6822F480220A60C4
:10050000B0F5803F07D0B0F5802F03D1086840F4E4
:10051000A02008607047086840F48030F9E7024680
:10052000002053098A49012B0AD0022B0AD0496ABC
:1005300002F01F02012393400B4200D001207047BC
:100540000968F5E7096AF3E718B500204FF4A064DD
:1005500000903120FFF7E3FF0099491C0091A14270
:1005600001D00028F5D03120FFF7D9FF002800D0B6
:10057000012018BD76490A6822F0F80242EAC0005C
:1005800008607047754908607047714A53680843AE
:1005900023F47C1318435060704770490866704715
:1005A0006B4A516821F0030101435160704768486C
:1005B000406800F00C007047654A516821F0F00176
:1005C000014351607047624A516821F4E061014380
:1005D000516070475E494A6822F4605242EAC000A6
:1005E000486070475A4A0029517A01D0014300E01F
:1005F0008143517270475949C1F8D8007047544A35
:10060000516821F440410143516070475049002234
:1006100081F8202081F82020012802D0042802D16E
:10062000052081F8200070474D490860704748490F
:100630000A6A02430A6270474949443908607047B0
:1006400030B543494A6812F00C03464A03D0042BE4
:1006500001D0082B21D002604A680F23424C03EAE4
:100660001212A35C0268DA4042604B68072505EA73
:100670001323E35C22FA03F383604B6805EAD32378
:10068000E35CDA40C2604968032303EA9131231F27
:10069000595CB2FBF1F1016130BD4A684B6802F46C
:1006A00070124FF0020413F4803F04EB924202D028
:1006B0004B689B0301D52D4B00E02A4B5A43CAE7F8
:1006C000234A0029516901D0014300E0814351616F
:1006D00070471F4A0029916901D0014300E081431E
:1006E000916170471A4A0029D16901D0014300E0A5
:1006F0008143D1617047164A0029D16801D0014376
:1007000000E08143D1607047114A0029116901D08E
:10071000014300E08143116170471149403908608D
:1007200070470E49C86470470949C8717047084846
:10073000416A41F0807141627047054A01460020DC
:1007400092680A4200D001207047014988727047C0
:10075000001002400000FFF8FFFFF6FE00004242DA
:100760008004424200127A000400002000093D008B
:100770000CB500214B4801910091026842F480328F
:1007800002604FF4A063026802F400320092019A02
:10079000521C0192009A12B9019A9A42F3D102684E
:1007A000920333D5012100913F490A6842F01002BB
:1007B0000A600A6822F003020A600A6842F0020234
:1007C0000A604168416041684160416841F480616C
:1007D0004160416821F47C114160416841F4E811B5
:1007E0004160016841F08071016001688901FCD5B8
:1007F000416821F003014160416841F0020141601C
:100800004168C1F381010229FAD10CBD00910CBDF0
:10081000244810B5016841F0010101604168234A94
:10082000114041600168224A11400160016821F4D1
:1008300080210160416821F4FE0141604FF41F01F5
:100840008160FFF795FF1B494FF00060086010BD05
:10085000144910B54868184A10F00C03174803D023
:10086000042B01D0082B0AD002604968134AC1F357
:100870000311121D515C0268CA40026010BD4A6833
:100880004B6802F470124FF0020413F4803F04EB43
:10089000924202D04B689B0301D5094B00E0064B06
:1008A0005A43E1E700100240002002400000FFF838
:1008B000FFFFF6FE08ED00E000127A0014000020B1
:1008C00000093D000948804709480047FEE7FEE768
:1008D000FEE7FEE7FEE7FEE7FEE7FEE7FEE7FEE7F0
:1008E00004480549054A064B7047000011080008F6
:1008F00031010008880000208806002088020020BE
:100900008802002008B501210820FFF7E2FE01213E
:100910004020FFF7DEFE2020ADF8000003208DF818
:10092000020010208DF8030069460448FFF7E7FC39
:1009300069460348FFF7E3FC08BD0000000C0140D6
:1009400000180140704770477047754600F02CF85A
:10095000AE4605006946534620F00700854618B0AC
:1009600020B5FFF7BDFFBDE820404FF000064FF077
:1009700000074FF000084FF0000B21F00701AC46D4
:10098000ACE8C009ACE8C009ACE8C009ACE8C009F3
:100990008D46704710B50446AFF300802046BDE891
:1009A0001040FFF70CBC00000048704728000020F2
:1009B00001491820ABBEFEE7260002007047000088
:1009C000E009000800000020280000006C01000879
:1009D000080A0008280000206006000088010008BE
:1009E00002040608000000000102030401020304DF
:1009F0000607080900A24A040000000000000000E9
:080A00000102030406070809C6
:0400000508000131BD
:00000001FF
